{
  "contractName": "Ethernal",
  "abi": [
    {
      "constant": true,
      "inputs": [
        {
          "name": "",
          "type": "uint256"
        }
      ],
      "name": "occupiedPositions",
      "outputs": [
        {
          "name": "",
          "type": "bytes2"
        }
      ],
      "payable": false,
      "stateMutability": "view",
      "type": "function"
    },
    {
      "constant": true,
      "inputs": [],
      "name": "price",
      "outputs": [
        {
          "name": "",
          "type": "uint256"
        }
      ],
      "payable": false,
      "stateMutability": "view",
      "type": "function"
    },
    {
      "constant": true,
      "inputs": [
        {
          "name": "",
          "type": "bytes2"
        }
      ],
      "name": "locks",
      "outputs": [
        {
          "name": "owner",
          "type": "address"
        },
        {
          "name": "initialsLeft",
          "type": "bytes2"
        },
        {
          "name": "initialsRight",
          "type": "bytes2"
        }
      ],
      "payable": false,
      "stateMutability": "view",
      "type": "function"
    },
    {
      "inputs": [],
      "payable": false,
      "stateMutability": "nonpayable",
      "type": "constructor"
    },
    {
      "constant": false,
      "inputs": [
        {
          "name": "_position",
          "type": "bytes2"
        },
        {
          "name": "_initialsLeft",
          "type": "bytes2"
        },
        {
          "name": "_initialsRight",
          "type": "bytes2"
        }
      ],
      "name": "buyLock",
      "outputs": [],
      "payable": true,
      "stateMutability": "payable",
      "type": "function"
    },
    {
      "constant": false,
      "inputs": [],
      "name": "getOccupiedPositions",
      "outputs": [
        {
          "name": "",
          "type": "bytes2[]"
        }
      ],
      "payable": false,
      "stateMutability": "nonpayable",
      "type": "function"
    }
  ],
  "bytecode": "0x6080604052668e1bc9bf04000060025534801561001b57600080fd5b506108f18061002b6000396000f30060806040526004361061006d576000357c0100000000000000000000000000000000000000000000000000000000900463ffffffff1680635aaf4e5a14610072578063a035b1fe146100f5578063b0710a3d14610120578063bb538549146101b7578063c03ccb1d14610223575b600080fd5b34801561007e57600080fd5b5061009d60048036038101908080359060200190929190505050610343565b60405180827dffffffffffffffffffffffffffffffffffffffffffffffffffffffffffff19167dffffffffffffffffffffffffffffffffffffffffffffffffffffffffffff1916815260200191505060405180910390f35b34801561010157600080fd5b5061010a610397565b6040518082815260200191505060405180910390f35b6101b560048036038101908080357dffffffffffffffffffffffffffffffffffffffffffffffffffffffffffff1916906020019092919080357dffffffffffffffffffffffffffffffffffffffffffffffffffffffffffff1916906020019092919080357dffffffffffffffffffffffffffffffffffffffffffffffffffffffffffff1916906020019092919050505061039d565b005b3480156101c357600080fd5b506101cc61076b565b6040518080602001828103825283818151815260200191508051906020019060200280838360005b8381101561020f5780820151818401526020810190506101f4565b505050509050019250505060405180910390f35b34801561022f57600080fd5b5061026f60048036038101908080357dffffffffffffffffffffffffffffffffffffffffffffffffffffffffffff19169060200190929190505050610825565b604051808473ffffffffffffffffffffffffffffffffffffffff1673ffffffffffffffffffffffffffffffffffffffff168152602001837dffffffffffffffffffffffffffffffffffffffffffffffffffffffffffff19167dffffffffffffffffffffffffffffffffffffffffffffffffffffffffffff19168152602001827dffffffffffffffffffffffffffffffffffffffffffffffffffffffffffff19167dffffffffffffffffffffffffffffffffffffffffffffffffffffffffffff19168152602001935050505060405180910390f35b60018181548110151561035257fe5b9060005260206000209060109182820401919006600202915054906101000a90047e010000000000000000000000000000000000000000000000000000000000000281565b60025481565b6000806000857dffffffffffffffffffffffffffffffffffffffffffffffffffffffffffff19167dffffffffffffffffffffffffffffffffffffffffffffffffffffffffffff1916815260200190815260200160002060000160009054906101000a900473ffffffffffffffffffffffffffffffffffffffff1673ffffffffffffffffffffffffffffffffffffffff161415156104a2576040517f08c379a00000000000000000000000000000000000000000000000000000000081526004018080602001828103825260198152602001807f506f736974696f6e20616c7265616479206f636375706965640000000000000081525060200191505060405180910390fd5b600254341015151561051c576040517f08c379a00000000000000000000000000000000000000000000000000000000081526004018080602001828103825260128152602001807f496e73756666696369656e742066756e6473000000000000000000000000000081525060200191505060405180910390fd5b6060604051908101604052803373ffffffffffffffffffffffffffffffffffffffff168152602001837dffffffffffffffffffffffffffffffffffffffffffffffffffffffffffff19168152602001827dffffffffffffffffffffffffffffffffffffffffffffffffffffffffffff1916815250600080857dffffffffffffffffffffffffffffffffffffffffffffffffffffffffffff19167dffffffffffffffffffffffffffffffffffffffffffffffffffffffffffff1916815260200190815260200160002060008201518160000160006101000a81548173ffffffffffffffffffffffffffffffffffffffff021916908373ffffffffffffffffffffffffffffffffffffffff16021790555060208201518160000160146101000a81548161ffff02191690837e010000000000000000000000000000000000000000000000000000000000009004021790555060408201518160000160166101000a81548161ffff02191690837e0100000000000000000000000000000000000000000000000000000000000090040217905550905050600183908060018154018082558091505090600182039060005260206000209060109182820401919006600202909192909190916101000a81548161ffff02191690837e0100000000000000000000000000000000000000000000000000000000000090040217905550503373ffffffffffffffffffffffffffffffffffffffff166108fc60025434039081150290604051600060405180830381858888f19350505050158015610765573d6000803e3d6000fd5b50505050565b6060600180548060200260200160405190810160405280929190818152602001828054801561081b57602002820191906000526020600020906000905b82829054906101000a90047e01000000000000000000000000000000000000000000000000000000000000027dffffffffffffffffffffffffffffffffffffffffffffffffffffffffffff1916815260200190600201906020826001010492830192600103820291508084116107a85790505b5050505050905090565b60006020528060005260406000206000915090508060000160009054906101000a900473ffffffffffffffffffffffffffffffffffffffff16908060000160149054906101000a90047e0100000000000000000000000000000000000000000000000000000000000002908060000160169054906101000a90047e01000000000000000000000000000000000000000000000000000000000000029050835600a165627a7a72305820ffc8a50ec2268b8a11f9da8dbf061b4f516602f47bd0cb36f6ab48a1effe56290029",
  "source": "pragma solidity ^0.4.24;\n\ncontract Ethernal {\n    \n    mapping (bytes2 => Lock) public locks;\n    bytes2[] public occupiedPositions;\n    uint256 public price = 0.04 ether; // approx. 100 SEK at ETH/USD 275\n\n    struct Lock {\n        address owner;\n        bytes2 initialsLeft;\n        bytes2 initialsRight;\n    }\n\n    constructor() public {\n    }\n\n    function buyLock(bytes2 _position, bytes2 _initialsLeft, bytes2 _initialsRight) public payable {\n\n        // Position cannot be occupied\n        require((locks[_position].owner == 0x0), \"Position already occupied\");\n\n        // Funds sent must match or exceed price\n        require((msg.value >= price), \"Insufficient funds\");\n\n        // Close lock and throw away the key :-)\n        locks[_position] = Lock(msg.sender, _initialsLeft, _initialsRight);\n        occupiedPositions.push(_position);\n\n        // Return any excess funds\n        msg.sender.transfer(msg.value - price);\n    }\n\n    function getOccupiedPositions() public returns (bytes2[]) {\n      return occupiedPositions;\n    }\n\n}\n",
  "sourcePath": "/Users/philip/Projects/2018/ethernal-love/contracts/Ethernal.sol",
  "compiler": {
    "name": "solc",
    "version": "0.4.24+commit.e67f0147.Emscripten.clang"
  },
  "schemaVersion": "2.0.1",
  "updatedAt": "2018-08-25T14:58:43.335Z"
}